:020000040800F2
:1000000028540010C1010008FB28000867270008D9
:10001000F9280008410900080D3700080000000019
:10002000000000000000000000000000E1340008B3
:10003000010A000800000000FD280008E334000861
:10004000DB010008DB010008DB010008DB01000820
:10005000DB010008DB010008DB010008DB01000810
:10006000DB010008DB010008DB010008DB01000800
:10007000DB010008DB010008DB010008DB010008F0
:10008000DB010008DB010008DB010008DB010008E0
:10009000DB010008DB010008DB010008DB010008D0
:1000A000DB010008DB010008DB010008DB010008C0
:1000B000DB010008DB010008DB010008DB010008B0
:1000C000DB010008DB010008DB010008DB010008A0
:1000D000DB010008DB010008DB010008DB01000890
:1000E000DB010008DB010008DB010008DB01000880
:1000F000DB010008DB010008DB010008DB01000870
:10010000DB01000831290008DB010008DB010008E1
:10011000DB010008DB010008DB010008DB0100084F
:10012000DB010008DB010008DB01000845090008CD
:10013000DB010008DB010008DB010008DB0100082F
:10014000DB010008DB010008DB010008DB0100081F
:10015000DB01000851090008DB010008DB01000891
:10016000DB010008DB010008DB010008DB010008FF
:10017000DB010008DB010008DB01000800000000D3
:10018000DB010008DB010008DB010008DB010008DF
:10019000DB010008DB010008DB010008DB010008CF
:1001A0000000000000000000DB010008DFF80CD0B8
:1001B00000F018FB00480047AD5600082854001016
:1001C0000648804706480047FEE7FEE7FEE7FEE7F1
:1001D000FEE7FEE7FEE7FEE7FEE7FEE78D350008F7
:1001E000AD0100082DE9F05F0546002092469B46D0
:1001F00088460646814640241BE02846414647463D
:10020000224600F074F953465A46C01A914110D361
:1002100011461846224600F05BF92D1A67EB0108DB
:100220004F4622460120002100F052F917EB000949
:100230004E41201EA4F10104DFDC484631462A4627
:100240004346BDE8F09FD2B201E000F8012B491E01
:10025000FBD270470022F6E710B513460A46044663
:100260001946FFF7F0FF204610BD2DE9FE4F81EA49
:10027000030404F0004421F0004100944FF0000B0F
:1002800023F0004350EA01045ED052EA03045BD03D
:10029000C3F30A54C1F30A552C44A4F2F334019475
:1002A000A0FB0254C1F3130141F48011C3F3130303
:1002B00043F4801301FB024400FB034E840A970AB7
:1002C00044EA815447EA8357A4FB076802958D0AE4
:1002D00005FB07854FEA932C04FB0C542705029D70
:1002E0004FEA065847EA1637B5EB08056EEB070CE0
:1002F000870E920E47EA811742EA8312A7FB02019A
:10030000B6EB0B0164EB00042B0D43EA0C335E18D3
:1003100044EB1C50DA465146E7FB0201C5F31304D7
:100320004FEA0B3343EA14534FEA0432019C43EA89
:100330000603A4F10C040294009CCDE900B400F083
:100340002CF903B0BDE8F08F00200146F9E72DE954
:10035000F04D81EA030404F0004B21F000451446FF
:100360004FF0000A23F0004150EA050220D054EA81
:1003700001021DD0C5F30A570246C5F31303C1F3AA
:100380001300C1F30A5640F4801543F48013A7EB21
:100390000608101BD64608F2FD3873EB050002D3A1
:1003A00008F1010801E092185B41B8F1000F03DA8F
:1003B00000200146BDE8F08D00204FF48011064674
:1003C00084460EE0171B73EB050705D3121B63EB86
:1003D000050306434CEA010C49084FEA3000921825
:1003E0005B4150EA0107EDD152EA030012D082EAE4
:1003F000040083EA0501084305D0101BAB4106D277
:100400000122002306E000224FF0004302E06FF0DB
:10041000010253101AEB06004CEB085110EB0A00D6
:1004200041EB0B01BDE8F04D00F0A8B80EB540F26D
:10043000334102910021CDE900110A460B4600F03C
:10044000ACF803B000BD00F0004230F000400AD02C
:10045000C10D01F56071C0F3160042EA0151C208F6
:1004600040071143704700200146704701F00043E8
:1004700030B421F0004150EA010206D00A0DA2F585
:100480006072C1F31301002A02DC30BC0020704707
:10049000440F44EAC104C100E01830BC00EBC25074
:1004A00000F035B830B50B4601460020202201246B
:1004B00009E021FA02F59D4205D303FA02F5491B32
:1004C00004FA02F52844151EA2F10102F1DC30BD48
:1004D000202A04DB203A00FA02F100207047914004
:1004E000C2F1200320FA03F3194390407047202AF9
:1004F00004DB203A21FA02F00021704721FA02F3CE
:10050000D040C2F1200291400843194670470029AB
:10051000A8BF7047401C490008BF20F00100704789
:1005200010B4B0FA80FC00FA0CF050EA010404BFE9
:1005300010BC704749B1CCF1200421FA04F411FA3F
:100540000CF118BF012121430843A3EB0C01CB1D83
:100550004FEA00614FEA102042BF002010BC7047F4
:1005600000EBC35010440029A4BF10BC7047401CCE
:10057000490008BF20F0010010BC704710B5141EE0
:1005800073F1000408DA401C41F1000192185B414C
:100590001A4301D120F0010010BD2DE9F04D924623
:1005A0009B4611B1B1FA81F202E0B0FA80F220323A
:1005B0009046FFF78DFF04460F4640EA0A0041EAE5
:1005C0000B0153465A46084313D0114653EA010023
:1005D00019D0C8F140025046FFF789FF05460E4684
:1005E000504659464246FFF773FF084305D00120A5
:1005F00004E020463946BDE8F08D0020054346EA78
:10060000E0762C4337430A986305E40AA0EB080020
:100610000022FD0A44EA47540A3002D50020014670
:10062000E9E7010510196941DDE90845001969414B
:10063000BDE8F04DA2E72DE9FE4F804681EA0300B8
:10064000C00F0C46009021F0004123F00045B8EBAC
:100650000200A94105D24046214690461C460B4661
:10066000024623F00040104347D0270DC7F30A008D
:10067000C3F30A510290401A019040286BDAC3F389
:10068000130040F4801B0098924620B10023D2EB67
:10069000030A63EB0B0B01985946C0F14002504628
:1006A000FFF716FF06460D4650465946019A00F0E0
:1006B000ABF810EB08006141002487EA115284EA8C
:1006C000E7731A4340D0009A62B3019A012A4FEAB5
:1006D000075215DC001B61EB02014FF0004202EAF9
:1006E0000752CDE90042001C41F5801132462B46ED
:1006F000FFF753FF03B0BDE8F08F40462146F9E70E
:10070000001B61EB0201001C41F5801300185B41E6
:100710002018A2F5001747EB030140EAD570B6197F
:100720006D4111E06D084FEA360645EAC0754FEAA3
:100730000752001B61EB0201001C41F580114908C2
:100740004FEA30000019514132462B4603B0BDE854
:10075000F04FFFF713BF0098012240000023D0EBB9
:10076000020263EBE073009821464FEAE074B8EBB5
:10077000000061EB0401E9E783F000435BE781F0EF
:10078000004158E7C1F30A52C1F3130140F2FF33AD
:1007900041F480119A4202DA00200146704740F28B
:1007A00033439A42A2F2334202DC5242FFF79FBE29
:1007B000FFF78EBE30B5041E71F1000404DB4FF06C
:1007C0000044404264EB0101141E73F1000405DB98
:1007D0001C464FF00043524263EB0403994208BFAA
:1007E000904230BD064C074D06E0E06840F0010342
:1007F00094E8070098471034AC42F6D3FFF7DAFCD0
:1008000088060308B8060308202A06DBCB17203A1F
:1008100041FA02F043EAE07306E041FA02F3D04005
:10082000C2F12002914008431946704770B58D18F7
:1008300010F8014B14F0030201D110F8012B231121
:1008400006D110F8013B03E010F8016B01F8016BD1
:10085000521EF9D1ABB110F8012B04F00C048A1A26
:100860000C2C03D0A2EB84129B1C08E010F8014B67
:10087000A2EB0422F8E712F8014B01F8014B5B1ED2
:10088000F9D5A942D4D3002070BD70470146014874
:1008900001F046BB7442001010B5044801F052FB51
:1008A000042801D0012010BD002010BD74420010AA
:1008B00010B500F015F8012801D0012010BD07483F
:1008C00001F05AFC040006D14FF40061034801F026
:1008D000A5F900B10124204610BD000074420010AB
:1008E00008B501208DF800009DF8000008BD00004B
:1008F000134610B50A4601460024034801F034FDB2
:1009000000B10124204610BD7442001001490120AD
:100910008860704754420010134610B50A460146DD
:100920000024034801F0BAFD00B10124204610BDA7
:100930007442001001490120486070475442001081
:10094000FEE70000014800F049BB0000F84200103B
:10095000014800F043BB0000584300100168182311
:10096000CAB2103AB2FBF3F2054B6FF30901032A46
:100970009B5CC36500D9091D81650846704700006E
:10098000185A000810B5014600208B698A6A4FF09A
:10099000C07453B1B3F5005F15D072B1012A0CD009
:1009A000022A0AD0032A09D104E01AB1012A06D08A
:1009B000022A03D1C96AC90100D5012010BDC96A44
:1009C000A142FAD010BD002AF7D0012AF2D0022AA3
:1009D000F3D0032AF3D010BD30B50468256825F4A0
:1009E00080252560046863608368402B036803D01A
:1009F00099600068C26030BD9A600068C16030BD17
:100A0000704772B6FEE70022AFF3008030B50E4BA0
:100A1000054601205C7A002C14D1587A1C54587A6F
:100A200003EB800045605D7A03F108002A54587A90
:100A3000421C5A72303008703A2048702F2088705B
:100A4000CC70002030BD00001C4400102DE9F04F98
:100A50007D4987B0D1E9015080467CA0CE680C6802
:100A600002F056FE012282A1824804F0DBF8824F98
:100A7000011E387004D081A002F04AFE72B6FEE773
:100A800084A002F045FE0A228749884804F0F6F85F
:100A900079490870010003D085A002F039FE02E018
:100AA00089A002F035FE8E4800210FFA86FB017006
:100AB00001214170022181700321C1700421017163
:100AC00005214171062181710721C171082101723F
:100AD000092141720A2181720B21C1720C2101731B
:100AE0000D2141730E2181730F21C17330144FEA20
:100AF000284A0FFA88F900274FEA25482EB2251414
:100B000024B2069006982B46CDE904B007EBC70047
:100B100000EB471173488DE840070844224672A154
:100B200002F006FE7F1CB7F5486FEBDB00F0F8FC27
:100B3000794F0646774B3A466A495C4804F0EFF92C
:100B40004D4C5A4D20702846A96903F061FF714B46
:100B50003A466449284604F0E2F920702846A9691B
:100B600003F056FF6B4B3A465E49284604F0D7F92E
:100B700020702846A96903F04BFF664B3A46594955
:100B8000284604F0CCF920702846A96903F040FFFC
:100B9000604B3A465349284604F0C1F92070284674
:100BA000A96903F035FF5B4B3A464E49284604F0ED
:100BB000B6F920702846A96903F02AFF554B3A463A
:100BC0004849284604F0ABF920702846A96903F08B
:100BD0001FFF00F0A5FC851B2846FFF727FC9FEDB3
:100BE0004F1B53EC112BFFF7B2FB41EC100B53ECF6
:100BF000102B9FED4C0B51EC100BFFF7A8FBFFF7F0
:100C000035FCFFF720FC9FED490BCDE904018DED8C
:100C1000020B9FED480B009553EC102B21784748B1
:100C200002F076FD214803F0DFFE2070011E05D0A2
:100C300007B043A0BDE8F04F02F06ABD07B045A081
:100C4000BDE8F04F02F064BD085A00080D0A202AE2
:100C50002A2A2A2A2A204661744673204578616D23
:100C6000706C65202A2A2A2A2A2A0D0A0D0A0000F9
:100C7000000000000080002060420010206D6F75B1
:100C80006E74206572726F72203A202564200D0AFE
:100C900000000000206D6F756E74207375636573BE
:100CA00073212121200D0A003342001034820020DC
:100CB000206F70656E2066696C65206572726F7258
:100CC000203A2025640D0A00206F70656E20666949
:100CD0006C6520737563657373212121200D0A00F3
:100CE00064840020C88600202530346420253034F8
:100CF0006420253034642025303464202530346469
:100D00002025303464202530346420253034640DAF
:100D10000A00000004000010800002000000000033
:100D200000408F40000000000007EC3F0000000082
:100D3000000460400000000000078C402C060308FF
:100D400020636C6F7365206572726F72203A202584
:100D5000640D0A0020636C6F73652073756365739F
:100D600073212121200D0A0000B52DED028B99B0D1
:100D700069463B4800F0DFFF0EA9394801F004F84E
:100D800006A9374801F0CCF836480078801CFFF7F8
:100D90004DFB41EC180B00F045FDFFF747FB9FEDC5
:100DA000321B53EC112BFFF760FA9FED311B53EC14
:100DB000112BFFF7CCFA53EC182BFFF7C8FA41ECD4
:100DC000100B2DA053EC102B02F0A2FC2FA00699C3
:100DD00002F09EFC0B98FFF729FB41EC180B0A98D8
:100DE000FFF724FB53EC182BFFF73FFA9FED2E8BF8
:100DF00053EC182BFFF739FA53EC182BFFF735FAA1
:100E000053EC182BFFF731FA41EC100B28A053ECF0
:100E1000102B02F07DFC2EA0079902F079FC33A084
:100E2000089902F075FC37A0099902F071FC3CA00A
:100E30000A9902F06DFC41A00B9902F069FC46A0F2
:100E40000C9902F065FC4BA00D9902F061FC9DF835
:100E5000001050A002F05CFC19B0BDEC028B00BD8C
:100E60007442001041420010000000000000E03F0A
:100E70000000000080842E4153444361726420438B
:100E80004C4B3A25664D487A0D0A000053444361A5
:100E90007264496E666F2E43617264547970653A6C
:100EA00025640D0A00000000000000000000503F13
:100EB0005344436172644349442E43617264436105
:100EC0007061636974793A252E326647420D0A00D3
:100ED000534443617264496E666F2E436172645677
:100EE000657273696F6E3A25640D0A00534443615D
:100EF0007264496E666F2E436C6173733A25640D9C
:100F00000A000000534443617264496E666F2E52BA
:100F1000656C436172644164643A25640D0A0000A3
:100F2000534443617264496E666F2E426C6F636B0B
:100F30004E62723A25640D0A00000000534443617A
:100F40007264496E666F2E426C6F636B53697A658B
:100F50003A25640D0A000000534443617264496EEF
:100F6000666F2E4C6F67426C6F636B4E62723A25F0
:100F7000640D0A00534443617264496E666F2E4CDF
:100F80006F67426C6F636B53697A653A25640D0A2B
:100F9000000000005344436172644349442E4D6194
:100FA0006E75666163747572657249443A25640DA5
:100FB0000A00000090F83510022903D08021416515
:100FC00001207047052180F835100068016821F084
:100FD0000101016000207047406D70472DE9F84322
:100FE00004464FF00009CDF8009063484FF41651C5
:100FF000A56D0068B0FBF1F72E6894F85C1008202E
:1010000000FA01F131420FD021680A6852070BD56E
:101010000A6822F004020A6094F85C108840A86014
:10102000606D40F00100606594F85C104FF00108BD
:1010300008FA01F0304208D021684969090604D550
:10104000A860606D40F00200606594F85C100420B8
:101050008840304208D021680968890704D5A86013
:10106000606D40F00400606594F85C1010208840CA
:10107000304218D021680968090714D5A860206893
:101080000168490304D50068000308D5A16C07E096
:101090000168C90503D4016821F008010160216CD1
:1010A00009B12046884794F85C10202088403042DF
:1010B00031D021680968C9062DD5A86094F835009B
:1010C00005282068016806D0490347D50068000359
:1010D0001DD4616C1CE021F016010160206841699B
:1010E00021F080014161206C08B9A06C20B120681A
:1010F000016821F00801016094F85C103F208840ED
:10110000A86084F8349084F83580216D1FE0E16B8D
:1011100009B120468847606D00282BD0606DC0075C
:1011200014D0052084F835002068016821F0010101
:1011300001600098401C0090B84203D82068006805
:10114000C007F6D184F8349084F83580E16C00292A
:1011500010D001B02046BDE8F04308470168C9053A
:10116000D5D4016821F01001016084F8349084F82E
:101170003580CCE7BDE8F883504200102DE9F041FE
:10118000044600F0CDF906465CB1002584F83450E1
:10119000022084F835002068016821F00101016017
:1011A0000DE00120BDE8F08100F0BAF9801B0528B0
:1011B00005D920206065032084F83500F2E7206817
:1011C0000068C007F0D12268116820480140D4E9C6
:1011D00001031843D4E903363343184363691843C2
:1011E000A3691843E3691843236A18430843616AF3
:1011F000042903D1D4E90B13194308431060206874
:101200004069666A20F0070130460E430127042832
:101210000CD1A06A0643E06A40B12046FFF7B2FB5A
:1012200020B14020606584F83570BAE720684661D7
:101230002046FFF793FB94F85C203F2191408160AA
:10124000656584F835700020ACE700003F8010F041
:101250002DE9F0410446866D90F834000025012800
:101260000DD0012084F8340094F835700020012F4F
:1012700007D084F8340002252846BDE8F08102201A
:10128000FBE7022784F8357060652046FFF7A4FB72
:1012900094F85C103F208840B0602068016841F0FD
:1012A00016010160206C20B12068016841F008013E
:1012B00001602068016841F001010160DCE7000085
:1012C00070B5044600F02CF90546601C02D00448B5
:1012D0000078044400F024F9401BA042FAD370BD0A
:1012E000444200102DE9F84FDFF8F4A10022012458
:1012F0000AF1040B03254FF00F090BF1040E00BF98
:101300000B6804FA02F63340B3426FD10F7907F04D
:101310000307012F01D0022F16D187684FEA420838
:1013200005FA08FC27EA0C07D1F80CC00CFA08FCF7
:101330004CEA070CC0F808C04768B7430E79C6F3FB
:10134000001696403E4346600E79F643B6070AD033
:10135000C7684FEA420C05FA0CF6B7438E6806FAE6
:101360000CF63E43C6600E7906F00306022E10D13D
:10137000D60800EB8608D8F8206057074FEAD76CEC
:1013800009FA0CF7BE430F6907FA0CF73743C8F8A0
:10139000207006684FEA420C05FA0CF7BE430F793D
:1013A00007F0030707FA0CF7374307604E68F600AB
:1013B0001CD54C4E376847F480473760366822F0BA
:1013C000030706F480460096474E07EB060CDCF850
:1013D000086897073F0F09FA07F826EA0806DFF8BA
:1013E0000C81404503D14FF0000841E072E0DFF886
:1013F0000081404502D14FF0010839E0DFF8F48068
:10140000404502D14FF0020832E0DFF8EC80404561
:1014100002D14FF003082BE0DFF8E080404502D115
:101420004FF0040824E0DFF8D880404502D14FF0A7
:1014300005081DE0DFF8CC80404502D14FF00608DA
:1014400016E0DFF8C480404502D14FF007080FE0F6
:10145000DFF8B880404502D14FF0080808E0DFF817
:10146000B080404502D14FF0090801E04FF00A0872
:1014700008FA07F848EA0608CCF80888DAF80060A5
:101480005746D1F804C09E435FEACC3C00D51E43CA
:101490003E60DBF800605F46D1F804C09E435FEA1F
:1014A0008C3C00D51E433E60DEF800607746D1F8E4
:1014B00004C09E435FEACC2C00D51E433E60084F1B
:1014C0000C373E68D1F804C09E435FEA8C2C00D5EF
:1014D0001E433E60521C102AFFF412AFBDE8F88F85
:1014E000003C01404438024000300140000002400E
:1014F0000004024000080240000C024000100240BC
:101500000014024000180240001C0240002002406B
:10151000002402400AB1816170470904FBE7000022
:10152000014880687047000044420010024881680A
:101530000278114481607047444200100B4810B596
:10154000016841F400710160016841F4806101604B
:10155000016841F480710160032000F06FF8002001
:1015600000F006F800F024F8002010BD003C024016
:1015700070B50D4D04464FF47A712878B1FBF0F048
:101580000A490968B1FBF0F001F018F848B9102CCD
:1015900007D200222146501E00F030F800206C6077
:1015A00070BD012070BD0000444200105042001088
:1015B0000A4808B5016841F480410160006800F400
:1015C000804000900548001F016841F08051016093
:1015D000006800F08050009008BD000044380240D0
:1015E000002809DB00F01F02012191404009800022
:1015F00000F1E020C0F8001170470000F0B40E4B7D
:101600001B680C46C3F30223C3F10705042D00D960
:101610000425191D072901D2002300E0DB1E012645
:1016200006FA05F1491E214099409E40761E16405B
:101630003143F0BC02F090B80CED00E0064900F038
:10164000070208684FF6FF03184040EA0220034AE9
:1016500010430860704700000CED00E00000FA0540
:101660002DE9F8431748016841F080510160006896
:10167000154F00F08050012600903E64FFF750FFA8
:1016800005464FF47A78114C05E000BFFFF748FF9C
:10169000401B40450DD86068C003F7D57E64FFF756
:1016A0003FFF0546464607E0FFF73AFF401BB042C2
:1016B00002D90320BDE8F88360688003F4D50020D8
:1016C000F8E700004038024000000E420070004081
:1016D0002DE9F0470E46050065D0DFF81481D8F8F3
:1016E0000000F7B200F00F00B04207D288F8007097
:1016F000D8F8000000F00F00B04254D128683D4CEB
:10170000810712D5400703D5206840F4E0502060DF
:101710002878000703D5206840F4604020602068E6
:10172000A96820F0F000084320602878C0072DD079
:10173000304968680839012812D0022813D00328DC
:1017400011D00968890700292DDA216821F00301E9
:1017500001432160FFF7E4FE814641F2883A0EE042
:1017600009688903EFE709688901ECE7FFF7D8FE0C
:10177000A0EB0901514502D90320BDE8F08720689C
:10178000696800F00C00B0EB810FEFD1D8F80010C1
:10179000404601F00F01B14207D90770006800F020
:1017A0000F00B04201D00120E7E72878400705D5B7
:1017B0002068E96820F4E05008432060287800079A
:1017C00006D52068296920F4604040EAC100206005
:1017D00000F038F82168084AC1F30311515CC84091
:1017E0000649086006480068FFF7C2FE0020C4E70B
:1017F000003C024008380240205A000850420010C5
:10180000484200100448054900680968044AC1F3C9
:101810008221515CC8407047504200100838024095
:10182000305A00080448054900680968044AC1F3B1
:101830004231515CC84070475042001008380240A5
:10184000305A0008154810B5006810F00C02144812
:1018500013D01449042A0FD0082A0ED10F4C241F8C
:101860002268236802F03F025B0207D52068C0F3BC
:101870008810A0FB010106E0084610BD2168C1F3F5
:101880008811A1FB00010023FEF7ACFC2168C1F325
:101890000141491C4900B0FBF1F010BD083802407D
:1018A0000024F40040787D012DE9F84F04006ED04B
:1018B0002078DFF84C93C007A9F104054AD009F15C
:1018C00004000168C1F38101012908D00068C0F358
:1018D000810002280AD1D9F80000400206D5286804
:1018E000800337D560680028E1D033E06068B0F548
:1018F000803F10D0B0F5A02F286810D020F48030A1
:101900002860286820F4802028606068A8B1FFF76C
:1019100007FE06460DE0286840F48030F4E740F406
:1019200080202860F7E700BFFFF7FAFD801B6428DE
:1019300073D828688003F7D50CE0FFF7F1FD064661
:1019400005E000BFFFF7ECFD801B6428F0D8286895
:101950008003F7D42078DFF8AC8280074FF0000ACC
:101960003ED5A748001D016811F00C0F08D0006893
:10197000C0F3810002280BD1D9F80000400207D43F
:101980002868800716D5E068012800D112E033E10D
:10199000E068B8B10120C8F80000FFF7C1FD0646B5
:1019A00005E000BFFFF7BCFD801B0228C0D82868F7
:1019B0008007F7D52868216920F0F80040EAC100C7
:1019C00028600DE0C8F800A0FFF7AAFD064604E075
:1019D000FFF7A6FD801B02281FD828688007F7D4D0
:1019E0002078000722D5864F87486169703771B12A
:1019F00001210160FFF794FD064604E0FFF790FD2A
:101A0000801B022809D838688007F7D50EE0C0F897
:101A100000A0FFF785FD064605E082E0FFF780FDA8
:101A2000801B02287DD838688007F7D420784007CB
:101A300068D5DFF8CCB100270BF13C0BDBF80000D8
:101A4000C0000BD4DBF8001041F08051CBF800103F
:101A5000DBF80000012700F0805000906B4E3068EA
:101A6000C00510D4306840F480703060FFF758FD36
:101A7000009005E0FFF754FD0099401A022850D865
:101A80003068C005F6D55E4EA0686C3601280FD0D0
:101A90000528306810D020F001003060306820F058
:101AA00004003060A068B8B1FFF73AFD00900FE085
:101AB000306840F00100F4E740F004003060F7E7E0
:101AC000FFF72EFD0099411A41F28830814266D815
:101AD00030688007F4D50EE0FFF722FD009007E0A4
:101AE000FFF71EFD0099411A41F28830814256D815
:101AF00030688007F4D42FB1DBF8001021F080515A
:101B0000CBF80010A069C8B33D49091D0968C1F3AD
:101B1000810102294AD00228504607D0C8F8600047
:101B200000E03CE0FFF7FCFC04463BE04746C8F819
:101B30006000FFF7F5FC064605E000BFFFF7F0FC8C
:101B4000801B02282BD828688001F7D4D4E907012C
:101B50000843A16A2E4A490802EB0141626A41EA40
:101B60008211084394F82C1040EA0161C9F8001072
:101B700001203866FFF7D4FC044606E03EE000BFD3
:101B8000FFF7CEFC001B022809D828688001F7D592
:101B900034E000BFFFF7C4FC001B022802D9032079
:101BA000BDE8F88F28688001F4D427E00128F7D039
:101BB000D9F80000E26900F4800191421CD1226A48
:101BC00000F03F01914217D147F6C071626A0140AF
:101BD000B1EB821F10D1A26A4FF0FF3300F4403105
:101BE00003EB5202B1EB024F06D194F82C1000F037
:101BF0007060B0EB016F01D00120D1E70020CFE78A
:101C00000438024000004742800E47420070004006
:101C10000000FFFF10B5FEF738FE10BD2DE9FE43B2
:101C20000446002603200D4684F83400606C032827
:101C30005ED0B5F5805F5BD04FF4006700204FF0B9
:101C40008068BD421FD1814600900190002120682C
:101C500000F06BFE800113D46946204601F052FA71
:101C600007000DD10198400334D5B4F850000104A9
:101C7000206800F095FE070002D10221206823E0D1
:101C8000A06B384328E01DB1A06B40F0006023E05A
:101C90008146009001900021206800F046FE8001FE
:101CA000EED46946204601F02DFA0700E8D10198EC
:101CB000C0030FD5B4F850000104206800F070FE96
:101CC0000700DDD10021206800F0B7FE0700D7D162
:101CD0004F46D5E74746D3E7A063A06B144F4FF0BC
:101CE000010848B12068876384F8348001260EE03B
:101CF000A06B40F08050EFE7211DD4E9050C0EC920
:101D0000CDE90050CDF808C0206800F017FE4FF470
:101D10000071206800F078FE28B121688F63A16B04
:101D20000143A163012684F834803046BDE8FE8378
:101D3000FF054000704750F8742F120E0A700268B9
:101D4000120A4A8002784368120642EA13224A6065
:101D500002790A728268120E4A728268C36812029D
:101D600042EA1362CA60C268C2F303520A74C268CC
:101D7000C2F30B224A82007BC0F3460008750120A3
:101D80004875002070470000F0B5426E920F0A704F
:101D9000426EC2F383624A70426EC2F301628A707D
:101DA000426E120CCA70B0F86420120A0A7190F8E0
:101DB00064204A71826E120DCA80826EC2F30342A1
:101DC0000A72B0F86820C2F3C0324A72B0F86820D4
:101DD000C2F380328A72B0F86820C2F34032CA720D
:101DE000B0F86820C2F300320A7300264E73426CCA
:101DF0004FF40075012462B1012A3AD002684749C4
:101E00009163816B41F08051816380F834400120FF
:101E1000F0BDB0F86820C36E9205120D42EA9372CD
:101E20000A61C26EC2F3C2620A75C26EC2F3026276
:101E30004A75C26EC2F342528A75C26EC2F38242C2
:101E4000CA75C26EC2F3C2320A760A69521C426572
:101E50000B7E03F007039B1C9A4042650B7A03F04C
:101E60000F0704FA07F383655B0A5A43C0E9172595
:101E70000EE090F86820C36E9206920A42EA13427E
:101E80000A610A69521C92024265C0E9165205664F
:101E900030F86C2FC2F3803201F8192F0288C2F398
:101EA000C6124A70027802F07F028A704268D20F2E
:101EB000CA704268C2F341720A714268C2F3826218
:101EC0004A714268C2F383528A714268C2F3405237
:101ED000CA710E724268C2F300424A728288C2F32B
:101EE000C0328A728288C2F38032CA728288C2F398
:101EF00040320A738288C2F300324A738288C2F386
:101F000081228A738288C2F30122CA730079C0F3E6
:101F1000460008744C740020F0BD0000FF0540002E
:101F2000426C0A60826C4A60C26C8A60026DCA6050
:101F3000426D0A61826D4A61C26D8A61006EC8613C
:101F40000020704770B50446B0F850000025010429
:101F5000206800F07CFE18B1A16B0143A16304E08E
:101F60000021206800F0E1FC0546C5F3432070BD68
:101F7000F8B5056B04460068416B09041BD52907B9
:101F800019D5D4E90A56002E14D00027206800F095
:101F9000EFFC05F8010B010A05F8011B010C05F81F
:101FA000021B000E361F7F1C05F8010C082FEDD315
:101FB000C4E90A56F8BD416B4FF00006C9054FF061
:101FC000010744D5390281632068C16B4CF23A3273
:101FD0009143C1632068C16A21F00101C1622807F1
:101FE0001DD515F0220F09D0206800F061FE28B140
:101FF000A16B0143A1632046FFF79CFE216840F2DC
:102000003A50886384F834702663A80703D02046CA
:1020100000F03CFAF8BD204600F03CFAF8BD280676
:10202000FCD5A80609D5206800F042FE28B1A16BB6
:102030000143A1632046FFF77DFEA807EED120688B
:10204000C16A21F00801C16284F83470E3E7416B92
:10205000490424D5290722D5D4E90856002EDDD01D
:102060005FF0000715F8010B009015F8011B361FF3
:1020700040EA0120009015F8021B40EA0140009060
:1020800015F8011C40EA016000906946206800F0E4
:1020900082FC7F1C082FE5D3C4E90856F8BD416BCC
:1020A00040F23A221142F9D0416B890703D5A16B66
:1020B00041F00201A163416B090703D5A16B41F017
:1020C0000801A163416B890603D5A16B41F0200192
:1020D000A163416BC90603D5A16B41F01001A16357
:1020E000416B890503D5A16B41F00801A16340F262
:1020F0003A7181632068C16B40F23A329143C16307
:10210000206800F0D5FDA16B0843A063280706D521
:1021100084F8347026632046FFF70CFEF8BD2806CD
:10212000FCD515F0300F0CD0E16B11480865E06B61
:10213000FEF740FF0028F1D0E06BBDE8F84000F06A
:10214000BFBFA8070CD0216C0A480865206CFEF7B9
:1021500031FF0028E2D0206CBDE8F84000F087BFD6
:10216000A66384F8347026632046FFF753FDF8BD5C
:10217000C13000086F30000870B504000ED094F82C
:102180003400002518B92577204600F04BF80320CD
:1021900084F83400204600F00BF808B1012070BD2F
:1021A000A5632563012084F83400002070BD000081
:1021B000FEB50025044676200095CDE9015029465C
:1021C0000B460A46206800F0B9FB28BB134E46F8C0
:1021D000A05F206800F0C4FB01253560204601F0B7
:1021E00075F828B184F83450A16B0143A16313E062
:1021F000204600F0F4FF0028F4D14FF4007120686D
:1022000000F002FC002808D0226805499163A16B08
:102210000143A16384F834500120FEBD00802542B3
:10222000FF0540002DE9F04F87B0054614216846B0
:10223000FEF710F84649286888427DD14548006875
:10224000444940F400600860086800F400600590AC
:102250004048143800683F4940F0040014390860D1
:10226000086800F004000590086840F00800086065
:102270000868022400F0080005904FF4F850CDE9FA
:10228000000402AA002003264FF00C0882E8410156
:1022900069463148FFF726F802AA002082E841018A
:1022A0000427CDE9007469462C48FFF71BF82D4C34
:1022B0002B484FF00068C4E9000800204FF4806903
:1022C000A060C4E90309B8024FF4804BC4E9050BD0
:1022D000C4E909764FF0200A0020C4E907A07E0572
:1022E000B7102046C4E90B67FEF748FF08B1FEF7B8
:1022F00088FB2C64A5631B4C194860344830C4E942
:1023000000084020A0600020C4E90309C4E907A038
:102310000420606204F12802032082E8C1004FF427
:102320008051C4E9051B2046FEF728FF08B1FEF7DF
:1023300068FBEC63002200E007E011463120A56352
:10234000FFF75CF93120FFF74BF907B0BDE8F08FDC
:10235000002C01404438024000080240000C0240BA
:1023600058640240F84200102DE9F04786B01F463D
:102370000446154639B194F83400012807D00220EC
:1023800006B0BDE8F087A06B40F0006008E00020D8
:10239000A063E36DEA199A4204D9A06B40F0007083
:1023A000A06369E0032284F8342022688146D06269
:1023B0002268D36B40F22A363343D363236C2F4A0F
:1023C000DA63236C2E4ADA64226C1065226C90600A
:1023D000206C0068026822F0C002026020680A4691
:1023E000266C4FEA472800F180014FEA98033046F7
:1023F000FEF72EFFDFF88CA0012670B12068C16BBC
:1024000021F49571C1632168C1F838A0A06B40F038
:102410008040A06384F834602EE01B480660606C46
:10242000012800D06D024FF0FF30CDE90008902068
:10243000029002200596CDE903096946206800F064
:102440005EFA012F06D9822020632946206800F019
:102450006FFB05E0812020632946206800F081FBA6
:1024600000288DD02268C2F838A0A16B0143A16377
:1024700084F83460C4F83090012081E72D300008E2
:10248000C92F0008FF0540008C85254210B5FEF7D6
:102490003DFA10BD10B5FEF74DFA10BD2DE9F04F15
:1024A0005FEA010B87B01E460446114607D094F838
:1024B0003400012807D0022007B0BDE8F08FA06BE0
:1024C00040F0006008E00025A563E26D88199042A5
:1024D00004D9A06B40F00070A06356E0032084F89C
:1024E00034002068C5622068C26B40F21A2942EAB3
:1024F0000902C263E26B2D48D063E26B2C48D064C2
:10250000E06B0565606C012800D049024FF090082F
:10251000012E05D9A0202063206800F0E3FB04E031
:10252000C4F83080206800F0F6FBDFF888A00127AF
:1025300030B12268C2F838A0A16B0143A16321E049
:102540001D480760E16B40208860E06B006801680F
:1025500021F0C00141F04001016022687602B30819
:1025600059468032E06BFEF773FE80B12068C16B84
:1025700021EA0901C1632168C1F838A0A06B40F0CD
:102580008040A06384F834702563012094E74FF005
:10259000FF30CDE90006CDE90285CDE90457694653
:1025A000206800F0ACF9002086E70000B330000896
:1025B000C92F0008FF0540008C85254210B5401E3C
:1025C000B0F1807F01D3012010BD4FF0E0246061A5
:1025D0000F21601701F0C0F80020A06107202061E2
:1025E000002010BD70B5040004D094F83D00002513
:1025F00010B106E0012070BD84F83C50204600F088
:1026000023F8242084F83D002068C16821F400519B
:10261000C160204600F0C2FF2068016921F49041AA
:1026200001612068416921F02A0141612068C16887
:1026300041F40051C1602564202084F83D0084F8F5
:102640003E00002070BD000010B586B00446142185
:102650006846FDF7FFFD14492068884221D11348E0
:10266000016841F080410160006800F08040059001
:102670000E481038016841F0100101600068694699
:1026800000F0100005904FF4C070009002200190FF
:102690000120029003200390082004900448FEF7D4
:1026A00021FE06B010BD0000007800404038024016
:1026B000001002402DE9F843044690F83D001F4603
:1026C00016460D4620284CD1C5B1BEB194F83C0049
:1026D000012846D0012084F83C004FF00008C4F8DF
:1026E0004080212084F83D00FEF71AFFA684814631
:1026F000E684A068B0F5805F03D004E00120BDE867
:10270000F883206928B12E465FF0000584F83C80EC
:102710000EE00026FAE78021204600F0C5FFA0B9B0
:10272000AEB116F8010B21684860E08C401EE084D1
:10273000E08C4B464FF0000200970028EBD14FF0A1
:102740004001204600F0B0FF30B10320D7E735F854
:10275000020BC0F30800E6E7202084F83D000020CB
:10276000CDE70220CBE7FEE70D4808B5016841F44C
:10277000800101600068002200F4800000900221C6
:102780003B20FEF73BFF3B20FEF72AFF0022022101
:102790004520FEF733FFBDE808404520FEF720BF87
:1027A0003038024010B504490448FEF72CF90249BC
:1027B000491E087010BD000061420010385A000820
:1027C0002DE9F04186B014216846FDF743FD2E48FF
:1027D0000024016841F004010160016801F0040176
:1027E0000591016841F080010160016801F08001FC
:1027F0000591016841F002010160016801F00201E8
:102800000591016841F010010160016801F01001BB
:102810000591016841F001010160016801F00101C9
:102820000591016841F0080101600068174F00F050
:1028300008000590002207213846FEF76BFEDFF8FE
:1028400050807E15002231464046FEF763FE072089
:1028500000900125CDE90154694638460394FEF7FE
:1028600041FD0096CDE90154694640460394FEF7C8
:1028700039FD0820CDE90004694606480294FEF7B8
:1028800031FD06B0BDE8F08130380240000402405E
:1028900000100240000C0240074806490160002178
:1028A00041608160C16001614161816103480170E3
:1028B00070470000002C014074420010414200109B
:1028C0000C4810B50A4901604FF4E1314160002124
:1028D00081600C22C160C0E904128161C161FFF70F
:1028E00081FE002803D0BDE81040FEF78AB810BD75
:1028F00000780040B8430010FEE7FEE770470A6822
:1029000042624A688262D1E902231A43D1E9043162
:102910000B43C16A1A4321F0F7011143C162002041
:102920007047006800F00300704708444069704732
:102930000148FFF71DBB00007442001070B50DF197
:10294000100C11439CE8700023431943294342684B
:10295000314347F6FF639A430A434260002070BD4B
:1029600010B5032101600220FEF7AAFC002010BD73
:10297000D0F8800070470A688260D1E901231A43C9
:10298000D1E903310B43C1681A436FF30B011143C3
:10299000C160002070470968C0F8801000207047AF
:1029A00010B586B004463720CDE9001040200290D3
:1029B000002003904FF48060049069462046FFF7A2
:1029C000DAFF41F288323721204600F0BDF906B027
:1029D00010BD000010B504460A4886B00143292006
:1029E000CDE9001040200290002003904FF4806059
:1029F000049069462046FFF7BEFF204600F05CFACF
:102A000006B010BD0000108010B586B0044610203E
:102A1000CDE9001040200290002003904FF4806028
:102A2000049069462046FFF7A6FF41F28832102144
:102A3000204600F089F906B010BD10B586B00446F6
:102A40000620CDE9001040200290002003904FF4B2
:102A50008060049069462046FFF78DFF41F288327E
:102A60000621204600F070F906B010BD30B585B0E3
:102A700000240546009401944FF480600294CDE94F
:102A8000034069462846FFF776FF0B484FF4FA519A
:102A90000068B0FBF1F041F288314843401E03D298
:102AA0004FF0004005B030BD696B0906F6D5C52072
:102AB000A8632046F6E700005042001070B585B0CC
:102AC00004464FF4D570009001A908204025002647
:102AD00081E86100C001049069462046FFF74BFF82
:102AE00012484FF4FA510068B0FBF1F041F288311E
:102AF0004843401E03D24FF0004005B070BD616BEB
:102B000011F0450FF5D00905F3D4606B400701D5EE
:102B1000042003E0606BC00702D00120A063ECE753
:102B2000606B400600D5A5633046E6E750420010D2
:102B300010B586B004461220CDE900104020029066
:102B4000002003904FF48060049069462046FFF710
:102B500012FF41F288321221204600F0F5F806B04B
:102B600010BD10B586B004461120CDE900104020FC
:102B70000290002003904FF4806004906946204644
:102B8000FFF7F9FE41F288321121204600F0DCF80F
:102B900006B010BD10B586B004460720CDE9002070
:102BA00040200290002003904FF48060049069461A
:102BB0002046FFF7E0FE41F288320721204600F070
:102BC000C3F806B010BD10B586B00446002102203F
:102BD000CDE90010C020CDE902014FF480600490DF
:102BE00069462046FFF7C7FE204600F03DF906B0D3
:102BF00010BD10B586B004460920CDE90010C020F4
:102C00000290002003904FF48060049069462046B3
:102C1000FFF7B1FE204600F027F906B010BD10B551
:102C200086B0044600213320CDE900104020CDE9D4
:102C300002010001049069462046FFF79CFE41F224
:102C400088323321204600F07FF806B010BD10B561
:102C500086B004460D20CDE90010402002900020EF
:102C600003904FF48060049069462046FFF783FE8E
:102C700041F288320D21204600F066F806B010BD02
:102C800030B585B00C46054600210320CDE9001083
:102C90004020CDE902010001049069462846FFF773
:102CA0006AFE22460321284600F028F905B030BD0F
:102CB00010B586B0044600210C20CDE9001040205C
:102CC000CDE902010001049069462046FFF753FE5A
:102CD000034A0C21204600F037F806B010BD000072
:102CE00000E1F50510B586B004461920CDE90010C5
:102CF00040200290002003904FF4806004906946C9
:102D00002046FFF738FE41F288321921204600F0B4
:102D10001BF806B010BD10B586B004461820CDE9EA
:102D2000001040200290002003904FF48060049037
:102D300069462046FFF71FFE41F2883218212046DF
:102D400000F002F806B010BD454B10B51B684FF4FB
:102D5000FA54B3FBF4F353435B1E02D24FF000402E
:102D600010BD426B12F0450FF6D01205F4D4426B41
:102D7000520703D504218163084610BD426BD20778
:102D800002D00121816305E0C52282630269D2B2CB
:102D90008A4201D0012010BD0021FFF7C6FD314954
:102DA000084201D1002010BD002802DA4FF0007067
:102DB00010BD410001D5402010BD810001D580200B
:102DC00010BDC10002D54FF4807010BD010102D5C5
:102DD0004FF4007010BD410102D54FF4806010BD6A
:102DE000C10102D54FF4006010BD010202D54FF4BD
:102DF000805010BD410202D54FF4005010BD810239
:102E000002D54FF4804010BDC10202D54FF40040FE
:102E100010BD410302D54FF4003010BD810302D52F
:102E20004FF4802010BDC10302D54FF4002010BD27
:102E3000010402D54FF4801010BD410402D54FF4B7
:102E4000001010BD810402D54FF4800010BD0007B2
:102E500002D54FF4000010BD4FF4803010BD0000CB
:102E60005042001008E0FFFD12494FF4FA52096881
:102E7000B1FBF2F141F288325143491E02D24FF0C8
:102E800000407047426B12F0450FF6D01205F4D4A3
:102E9000416B490703D50421816308467047416BA4
:102EA000C90703D00121816308467047C5218163AA
:102EB00000207047504200100F494FF4FA52096841
:102EC000B1FBF2F141F288325143491E02D24FF078
:102ED00000407047426B12F0450FF6D01205F4D453
:102EE000416B490703D50421816308467047C5211A
:102EF00081630020704700005042001030B5204B25
:102F00004FF4FA541B68B3FBF4F341F28834634383
:102F10005B1E02D24FF0004030BD446B14F0450FF1
:102F2000F6D02405F4D4436B5B0703D504218163F9
:102F3000084630BD436BDB0702D00121816303E00B
:102F40000369DBB28B4201D0012030BDC521816312
:102F50000021FFF7EAFC10F4604F04D0410406D5CD
:102F60004FF4005030BD000C1080002030BD000434
:102F700002D54FF4805030BD4FF4803030BD00009A
:102F80005042001010B5064C01202070FDF784FC63
:102F900018B9207820F001002070207810BD0000C2
:102FA0005442001070B50546FEF7BAFA044603E035
:102FB000FDF772FC002806D0FEF7B2FA001BA8420B
:102FC000F6D34FF0FF3070BD10B5846BFEF704F8F8
:102FD000022828D0206C416DE06B406D012901D0A2
:102FE00001281DD12168104888632068C16B21F435
:102FF0009D71C163A06B40F08040A0632046FEF746
:10300000A1FF062801D0052805D12068FFF750FE52
:10301000A16B0843A063012084F8340000202063E2
:103020002046FEF787FE10BDFF05400010B5846BFB
:10303000206B822809D12068FFF73AFE28B1A16BE6
:103040000143A1632046FEF775FE2068C16A21F0A6
:103050000801C162216840F23A508863012084F877
:103060003400002020632046FFF710FA10BD10B591
:10307000846B40F23A50216888632046FEF762FF75
:10308000012184F8341000212163062801D005288D
:1030900005D12068FFF70CFEA16B0843A063A06B6D
:1030A0000028204602D0FEF745FE10BDFEF7B2FD17
:1030B00010BD806B0068C16B41F48071C1637047C3
:1030C00010B5846B40F23A50216888632046FEF7C1
:1030D00039FF012184F8341000212163062801D032
:1030E000052805D12068FFF7E3FDA16B0843A06325
:1030F000A06B0028204602D0FEF71CFE10BDFEF794
:1031000089FD10BD2DE9F04788B00D460446FEF755
:1031100007FA002682460096019637460821206865
:10312000FFF772FC002829D1B4F850000104206890
:10313000FFF736FC002821D1401E4FF00808CDE9EA
:10314000020830204FF00209CDE904090120CDE941
:10315000067002A92068FFF7D2FB2068FFF75FFD29
:1031600000280BD16F462068416B11F02A0F08D060
:10317000416B09071AD5C0F83880082008B0BDE8AF
:10318000F087416B890205D5FFF7F2FB47F826006F
:10319000761C02E0416B8904EAD5FEF7C1F9A0EB89
:1031A0000A00401CDFD14FF00040E7E7416B890780
:1031B00003D5C0F838900220E0E7416B890603D5BB
:1031C000202181630846D9E740F23A518163019892
:1031D00000BA2860009800BA68600020CEE710B5F9
:1031E00090B004460120ADF838002068FFF799FB45
:1031F000002854D0606C032842D02068FFF7E3FC1D
:1032000000284AD100212068FFF78FFB6067042166
:103210002068FFF78AFBA06708212068FFF785FB7D
:10322000E0670C212068FFF780FBC4F88000606C29
:10323000032825D00EA92068FFF722FD00282CD1F5
:10324000606C03281CD0BDF838002065010420689C
:10325000FFF7CFFC002820D100212068FFF765FB95
:10326000606604212068FFF760FBA06608212068E3
:10327000FFF75BFBE0660C212068FFF756FB206739
:1032800004212068FFF751FB000DE06403A92046EC
:10329000FEF77AFD30B14FF0805010B010BD4FF006
:1032A0008060FAE7B4F85000002302042068FFF7BA
:1032B00071FC0028F1D104F1100007C88DE8070067
:1032C00094E80F00FFF73AFB0020E6E72DE9F84FFE
:1032D0000026044600963546B0460068FFF7C6FB58
:1032E000002827D12068FFF7E9FB4FF0805B4FF003
:1032F00001094FF6FF7748B1A6642068FFF7B6FBD7
:10330000002817D1A06C012802D020E0C4F8489012
:1033100000212068FFF744FB58B918E0002120681D
:10332000FFF73EFB002805D151462068FFF752FB0E
:1033300010B15846BDE8F88F00212068FFF7F5FA74
:1033400005464FEAD0780098401C009002E0DFF874
:103350002CA00098B84202D2B8F1000FDED000983D
:10336000B84202D34FF08070E4E7680002D5C4F899
:10337000449000E066640020DCE70000000010C11B
:1033800070B50546FDF794FA034C18B92846FFF7C7
:10339000F9FD2070207870BD5442001010B512481D
:1033A00088B014460078C00702D0032008B010BDD2
:1033B000C1B1012905D0022908D003290CD004206D
:1033C000F4E76846FDF762FA06980AE06846FDF7FA
:1033D0005DFA0798208005E06846FDF757FA0798E0
:1033E000400A20600020E1E7544200102DE9F0413E
:1033F00047F230551C461746884601262846FFF7F7
:10340000D1FD002826DB224639464046FDF770FAFA
:1034100000BB134C4FF00008C4F80880FEF780F89A
:103420000746A06820B9FEF77BF8C01BA842F8D376
:10343000A06828B1C4F80880FEF772F8044604E0DA
:10344000012607E0FDF728FA38B1FEF769F8001BFE
:10345000A842F7D33046BDE8F0810026FAE7000025
:1034600054420010FFF78EBD2DE9F0471B4C4FF082
:1034700000081F4691468A460126C4F8048047F298
:1034800030552846FFF78EFD002821DB3A46494695
:103490005046FDF741FAD8B9FEF742F80746606892
:1034A00020B9FEF73DF8C01BA842F8D3606828B1E8
:1034B000C4F80480FEF734F8044604E0012607E06F
:1034C000FDF7EAF938B1FEF72BF8001BA842F7D355
:1034D0003046BDE8F0870026FAE7000054420010AD
:1034E0007047FEF723B8000030B593B0302168462E
:1034F000FCF7B0FE14210CA8FCF7ACFE2148002517
:10350000016841F080510160006800F08050119026
:103510001D48016841F4404101600068022400F444
:1035200040401190012000904FF4A02001906005D0
:10353000CDE90640192008904FF4B470CDE9090494
:1035400008200B906846FEF7AFF908B172B6FEE7A7
:10355000FEF786F808B172B6FEE70CA90F2081E8E5
:1035600031004FF4A0500F904FF48050109005217F
:103570000CA8FEF7ADF8002801D072B6FEE713B034
:1035800030BD000040380240007000400248016831
:1035900041F470010160704788ED00E070B50446A9
:1035A00000680169E26821F4405111430161216919
:1035B000A068E26908436169114308432168CA6849
:1035C00049F20C639A430243CA6020684169A269C8
:1035D00021F440711143416131492068884202D091
:1035E0003049884202D1FEF71DF901E0FEF70AF9E1
:1035F000E2690023192164253226B2F5004F626882
:1036000028D0A0FB0101930F9200FCF7EBFD0146CF
:10361000B0FBF5F06FF01802504301EB800006EBB1
:103620000010B0FBF5F000F0F002B1FBF5F002EB9A
:103630000012B1FBF5F06FF01803584301EB800066
:1036400006EB0010B0FBF5F000F00F00216810440D
:10365000886070BDA0FB010192185B41FCF7C2FDC0
:103660000146B0FBF5F00201B1FBF5F06FF0180375
:10367000584301EB800006EBC000B0FBF5F000F012
:10368000F80002EB4002B1FBF5F0584301EB80007B
:1036900006EBC000B0FBF5F000F00700D6E7000035
:1036A00000100140001401402DE9F04198461746F2
:1036B0000E460446069D1DE0681C1BD02DB1FDF78B
:1036C0002FFFA0EB0800A84214D92068C16821F49C
:1036D000D071C1602068416921F001014161202061
:1036E00084F83D0084F83E00002084F83C0003206C
:1036F000BDE8F0812068006836EA000004D00020B0
:10370000B842D9D00020F3E70120F9E7FEE7000036
:103710000FB4054B10B503A9044A029800F0FEF857
:1037200010BC5DF814FB000041540008704200100A
:103730000FB4084B10B504A902AA039800F0EEF8E4
:10374000044602A9002000F080FC204610BC5DF871
:1037500014FB00004B4000080907090E002804DB99
:1037600000F1E02080F80014704700F00F0000F135
:10377000E02080F8141D704702E008C8121F08C13D
:10378000002AFAD170477047002001E001C1121FE2
:10379000002AFBD1704700002DE9FF5F82B00021B5
:1037A000DDE90430020DDDF840B0034318D044F6E3
:1037B0001050A2F2FF3242431514119801281FD075
:1037C000A5EB0B00401C5FEA000A4FF000064E4FCD
:1037D000DFF83891B046504615D5CAF1000413E021
:1037E000119801244AA3012801D16FEA0B01029824
:1037F000119AC0E90031C0E9024206B0BDE8F09F6D
:10380000CBF10000DFE704460021404A491842EBB3
:103810000450CDE9001012E0E00707D032463B46E5
:1038200040464946FCF721FD8046894632463B46E4
:1038300010461946FCF719FD06460F466410002C89
:10384000EAD1DDE90401DDE90023BAF1000F06DA6F
:10385000FCF70BFD42464B46FCF707FD05E0FCF785
:1038600076FD42464B46FCF772FD04460E460022AA
:10387000284BFCF79FFF03D84FF0FF30014607E0CD
:103880000022254B20463146FCF7D5FEFCF77AFF97
:10389000102409E0002C0ADB0A220023FCF7A2FC1A
:1038A000039B30321A55641E50EA0102F2D1641CA7
:1038B000039AC4F111031444119A012A03D001227E
:1038C00008430DD10AE0084304D000204FF0110B4B
:1038D000119072E7A3EB0B056D1E0DE05B4504DD57
:1038E0004FF0000205F1010504E003DA4FF0000299
:1038F000A5F10105002AECD002981199C0E9023126
:10390000C0E9004579E70000000014400000F03FE6
:10391000300000000000F0430000E03F2DE9FF4FC1
:1039200095B09B468946064600250FE2252877D1AB
:1039300000242746F84A0121059400E0044316F8C4
:10394000013F203B01FA03F01042F7D130782A28DA
:1039500011D06FF02F033078A0F13002092A16D869
:10396000059A44F0020402EB820203EB4202104487
:10397000761C0590EFE759F8042B0592002A03DA2C
:10398000504244F40054059044F00204761C307810
:103990002E2816D116F8010F44F004042A280DD061
:1039A0006FF02F023078A0F13003092B09D807EB14
:1039B000870302EB4303C718761CF3E759F8047B2F
:1039C000761C30786C280FD006DC4C2817D068287D
:1039D0000DD06A2814D104E0742810D07A280FD1B1
:1039E0000DE044F400140AE044F4801401E044F4CF
:1039F00040147278824202D104F58014761C761C41
:103A0000307866280BD013DC582877D009DC0028E2
:103A100075D04528F6D04628F4D047281AD19DE124
:103A200018E0632835D0642879D0652812D195E153
:103A3000702873D008DC6728F1D069286FD06E2811
:103A40000DD06F2806D1B5E073282CD0752875D01D
:103A5000782874D05A46179990476D1C75E1C4F3C5
:103A60000250022809D003280DD0D9F800100428EC
:103A70000DD00D6009F1040967E1D9F80010EA17CB
:103A8000C1E90052F6E7D9F800100D80F2E70D7099
:103A9000F0E719F8041B8DF8001000208DF80100E4
:103AA000EA46012003E059F804AB4FF0FF3061070C
:103AB0004FF0000102D40DE008F101018846B9423F
:103AC0000FDA8045F8DB1AF808100029F4D108E075
:103AD00008F1010188468142FADB1AF80810002932
:103AE000F6D105985B46A0EB080721463846179AA1
:103AF00000F094FA284400EB080507E04DE029E1C6
:103B00000DE01AF8010B5A4617999047B8F10108D1
:103B1000F7D25B4621463846179A13E142E00A2263
:103B20000092C4F302524FF0000A022A08D059F85A
:103B300004CB032A4FEAEC710AD00DE029E02AE019
:103B400009F1070121F00702F2E802C1914609E0FC
:103B50000FFA8CFC4FEAEC71042A03D14FFA8CFC6B
:103B60004FEAEC71002907DA0A460021DCF1000C6B
:103B700061EB02012D2202E0220504D52B228DF8F3
:103B80000420012203E0E20701D02022F7E790465B
:103B900059E00A2102E010220DE010214FF0000A46
:103BA00000910BE010224FF0000A44F004040827B3
:103BB000009203E008224FF0000A0092C4F3025280
:103BC000022A05D059F804CB0021032A08D009E0C5
:103BD00009F1070121F00702F2E802C1914605E070
:103BE0001FFA8CFC042A01D10CF0FF0C4FF00008E6
:103BF000220728D5702806D0009B83F0100353EAD3
:103C00000A0305D00EE040228DF80420012208E0CE
:103C10005CEA010206D030228DF804208DF8050000
:103C200002229046009B83F0080353EA0A030AD15C
:103C30005CEA010201D1620705D530228DF804202B
:103C40004FF001087F1E582804D034A003900EA81E
:103C500002900DE036A0F9E753466046009AFCF763
:103C6000C1FA84460398825C0298401E029002705A
:103C70005CEA0100F0D1029806A9081A00F1200AB6
:103C8000600702D524F4803400E00127574502DDA7
:103C9000A7EB0A0000E0002000EB0A010090059865
:103CA0004144401A0590E00306D45B462146179A2A
:103CB000059800F0B3F90544002706E001A85A462C
:103CC000C05D179990476D1C7F1C4745F6DBE003EC
:103CD0000CD55B462146179A059800F09FF90544DC
:103CE00004E030205A46179990476D1C0099481EF1
:103CF00000900029F5DC08E0029802995A46007805
:103D0000491C0291179990476D1CBAF10001AAF164
:103D1000010AF1DC65E1000009280100303132338D
:103D200034353637383961626364656600000000F7
:103D300030313233343536373839414243444546E1
:103D40000000000000F058F90544761C3078002887
:103D50007FF4ECAD19B02846BDE8F08F620700D4BF
:103D6000062709F1070222F0070CFCE80223E146CE
:103D700003F000485FEA080C02D00FF2702C0DE04F
:103D80005FEA045C02D50FF2682C07E05FEAC47CAE
:103D900002D00FF2602C01E0AFF2700C4FF0FF3850
:103DA00023F00043CDF850C065280CD006DC452830
:103DB00009D046281DD047283DD13DE0662818D0BF
:103DC00067287ED138E00021112F01DB112000E0AF
:103DD000781CCDE9000106A90EA8FFF7DDFCDDE99E
:103DE0000F010E9A03910021009207F1010A04913C
:103DF0004DE04FF000400097CDE9011006A90EA854
:103E0000FFF7CAFCDDE90F0203920E9B1199002215
:103E1000DDF80CA00093049211B9791C00EB010AA3
:103E2000B7EB0A0004D4C0F1FF3007F1010A049097
:103E3000AAEB0700019044E0012F00DA01270021DE
:103E4000112F01DD112000E03846CDE9000106A95F
:103E50000EA8FFF7A1FCDDE90F010E9A03910021E6
:103E600004910092BA4621070CD40399514500DA17
:103E70008A46BAF1010F05DD009AAAF10101515CF1
:103E8000302908D0B84202DA10F1040F06DA012115
:103E9000CDE9011015E0AAF10101E9E7002805DCF0
:103EA000049901440491AAEB000102E0411C514530
:103EB00000DD8A460499401A401C01904FF00040F2
:103EC0000290200704D40198504501DBCDF804800E
:103ED00000208DF84F0002980DF14F07B0F1004F10
:103EE00025D02B200E9002984FF0020800280CDA03
:103EF000404202902D200E9007E00A210298FCF724
:103F0000D1FA3031029007F8011DB8F10001A8F193
:103F10000108F2DC02980028EFD1791E0E98087093
:103F2000307800F0200040F0450007F8020D12A89C
:103F3000C01B00F107081498007800B1012000EBC5
:103F40000A01019801EBE07105984144401A401EB6
:103F50000590E00306D45B462146179A059800F0C9
:103F60005DF805441498007818B15A46179990479F
:103F70006D1CE00324D55B462146179A059800F096
:103F80004DF805441CE00498002807DBDDE9030137
:103F9000884203DD0098405C179901E017993020B2
:103FA0005A469047049805F10105401C0490019879
:103FB000401E019004D12E205A46179990476D1C3F
:103FC000BAF10001AAF1010ADDDC05E017F8010BE6
:103FD0005A46179990476D1CB8F10001A8F10108E5
:103FE000F4DC5B462146179A0598ABE62D000000ED
:103FF0002B000000200000002DE9F04104460025C0
:104000001E461746880404D405E039462020B047F0
:104010006D1C641EF9D52846BDE8F0812DE9F041FC
:10402000044600251E469046C80301D5302700E00F
:104030002027880404D505E041463846B0476D1C6A
:10404000641EF9D52846BDE8F0810A68531C0B6050
:104050001070704710B504460020E070401E2063C9
:10406000204601F054FB08B1042010BD04F23220B8
:1040700001F016FBA0F52A41553901D0032010BDEF
:1040800094F83400E92805D0EB2814D194F83600D0
:10409000902810D104F16A0001F0F7FA0749B1EB5A
:1040A000002F06D004F1860001F0EFFA044988429F
:1040B00001D1002010BD022010BD00000046415477
:1040C0004641543300E0401C02780AB18A42FAD1DA
:1040D000D0B27047F0B50022144D134605EB021420
:1040E00026685EB10768BE4209D166688768BE422D
:1040F00005D1A4684669B44204D000E00123521CF3
:10410000022AEBD3022A01D069B904E04BB9022993
:1041100007D01220F0BD05EB02108089B0F5807F3A
:1041200001D00020F0BD1020F0BD0000FC430010C5
:1041300030B50021054B0C4603EB01121568854292
:1041400000D11460491C0229F6D330BDFC43001095
:104150000268490AC06A5289B1FBF2F1001D04C825
:104160001AB1914203D3891AF8E70020704700681A
:10417000084470478269891E921E8A4201D8002035
:104180007047C26A408901FB002070472DE9F05F4B
:1041900082460C4601F11A0001F082FA78BB2078C1
:1041A000012700F03F00401E00EB8001DFF858902F
:1041B00001EBC00500264FF6FF7B00BF19F8060093
:1041C000204401F06DFA80466FB1FF2D17D200F048
:1041D00093FF07463AF815006D1C00F08DFF8742EB
:1041E0000DD1474601E0D84509D1761C0D2EE5D307
:1041F0002078400606D52FB13AF8150010B10020FE
:10420000BDE8F09F0120FBE74C5A00082DE9F04182
:1042100005680F00804606D001F064F9022809D233
:104220000120BDE8F0812E6916B1A869B04207D817
:10423000012605E0411CF4D0A9698142F1D83E462F
:104240003446A869641CA04202D80224022E0AD374
:104250002146404601F046F938B10128E1D0411C21
:10426000DFD0B442EDD10020DBE74FF0FF3632461D
:104270002146284601F064FA30B957B12246394642
:10428000284601F05DFA20B101280FD00124204614
:10429000C7E72C61D5E90501891E884201D8401E77
:1042A0006861287940F001002871F0E73446EEE7B4
:1042B0002DE9F84F824600680F680024C6688846DA
:1042C0002546785D6D1C20282AD32F2823D05C2812
:1042D00021D0FF2C49D2A0F181017D290BD8795D35
:1042E0006D1C01EB0020A1F1400280B23F2A02D3F5
:1042F00080397F2939D2012100F0D8FE5FEA000918
:1043000033D0B9F1800F12D2014675A0FFF7DAFE63
:1043100058BB0CE06D1C795D2F29FBD05C29F9D0CE
:104320007A19C8F80020202805D204250FE026F8C5
:104330001490641CC5E7002509E000BF06EB4400AB
:1043400030F8020C202801D02E2802D1641E002C47
:10435000F4D1002026F814003CB10B2220210AF1F0
:10436000240001F0CDF9002703E00620BDE8F88F16
:104370007F1C36F817002028FAD02E28F8D01FB15D
:1043800045F0030500E0641E2CB106EB440030F854
:10439000020C2E28F7D14FF000094FF0080BCDF892
:1043A000009000BF36F8170007F101075FEA000828
:1043B00024D0B8F1200F04D0B8F12E0F04D1A742B9
:1043C00002D045F00305EDE70098584501D2A74219
:1043D00019D1BBF10B0F0FD0A74201D045F0030557
:1043E0000CD84FF0080000904FEA896027464FF044
:1043F0000B0B4FEA1069D5E745F003059AF8240046
:10440000E52849D04BE04046B8F1800F07D300F0D3
:1044100073FE002100F04AFE804645F00205B8F127
:10442000FF0F13D90099ABF10100814204D345F08D
:104430000305CDF800B0B5E70AEB01004FEA1822FA
:1044400080F824200098401C00901CE0B8F1000F78
:1044500004D0014625A0FFF735FE20B14FF05F08DC
:1044600045F003050FE0A8F14100192802D849F0F2
:10447000020908E0A8F16100192804D8413049F088
:1044800001091FFA80F8009A0AEB020181F82480E2
:104490000098401C009085E705218AF82410BBF1A4
:1044A000080F03D14FEA89604FEA1069C9F3810010
:1044B000032803D06FEA0901890701D145F00205FD
:1044C000A90709D409F00301012901D145F010051C
:1044D000012801D145F008058AF82F50002045E752
:1044E000222A3A3C3E3F7C7F000000002B2C3B3DC3
:1044F0005B5D0000401E022812D20A4901EB001148
:104500008889B0F5807F05D008B1401E80B28881CF
:1045100010B103E00020FAE7002008600020704797
:1045200002207047FC4300102DE9F04704460021AB
:10453000D0F8009000F0CCF900285BD1FF25471E91
:10454000A84627634846E16901F0E1F8060050D12A
:10455000216A087850B1CA7AE52802F03F02A271B8
:104560003FD0130704D50F2A3BD105E0042640E0D5
:104570000F2A01D0E5B120E094F82F20520632D462
:10458000420606D591F80D8000F0BF00626905462D
:104590002263A84209D14A7B424506D1D9F80C00D2
:1045A000FFF7F4FD08B16D1E00E0FF25EDB21AE043
:1045B000084601F094F940451BD094F82F00C0073D
:1045C0000FD1D4F8201004F124000B2211F8013B84
:1045D00010F8015B5B1B521E02D0002BF6D000E0EE
:1045E0003BB1FF2527630021204600F005F80600B7
:1045F000A8D03046BDE8F0872DE9F0470546476969
:104600000468C0698946203710B1B7F5001F02D38E
:104610000420BDE8F087F90560D1401CE861A96974
:104620004FF0000829B16089401E10EA572F05D0CD
:1046300054E02089B0EB571F1DD94FE0284600F009
:1046400051FF064601281BD9701C33D0A069B04227
:104650003ED8B9F1000F0ED02846A969FFF7D6FD64
:1046600006000BD0012E0BD0701C23D0204601F089
:1046700087F9F8B906E0C5F81C80C9E70720C8E744
:104680000220C6E74FF40072002104F1340001F06B
:1046900037F84FF0000831462046FFF76BFD4FF02A
:1046A000010920630DE000BF84F80390204601F06B
:1046B00067F908B10120ACE7206B08F10108401C44
:1046C000206361894145EFD8216BA1EB080020638D
:1046D00031462046AE61FFF74DFDE861C7F30800A3
:1046E000204434306F612862002092E72DE9F04FBA
:1046F0000446D0F8009090F82F0089B010F0A00F79
:1047000003D0062009B0BDE8F08F0025D9F80C00D1
:1047100000E06D1C30F815100029FAD104F12401D5
:104720000C226846039100F0E1FF9DF80B00C007E2
:1047300019D0402084F82F00012633466946D9F865
:104740000C20039800F088FE2046FFF7EDFE10B91C
:10475000761C642EF1D3642E0FD00428D2D19DF89C
:104760000B0084F82F009DF80B00800707D50D2063
:104770000C35B5FBF0F56D1C02E00720C2E7012502
:1047800000212046276800F0A3F888B900263846A3
:10479000E16900F0BCFF58B9206A0078E5280AD02A
:1047A00048B1002601212046FFF726FF0028EED061
:1047B000042812D012E0761C2846AE42F2D1451EE3
:1047C000059567D06169684201EB4011204600F011
:1047D0007FF85FEA000803D076E00720804673E0A8
:1047E000039801F07CF84FF6FF7B07904846E1699B
:1047F00000F08DFF5FEA000866D1D9F80C00069042
:104800000598D4F82080C0B20490079988F80D105C
:104810000F2188F80B10002188F80C1008F11A00FD
:1048200001F059F80498DFF8A4A0401E00EB8001C5
:1048300001EBC006002701E05D4503D0069830F883
:104840001650761C1AF8071001EB0800294601F0F3
:1048500042F805B95D467F1C0D2FEDD35D4505D0AF
:10486000069830F8160008B1049803E0049840F068
:104870004000049088F80000012189F8031000210D
:104880002046FFF7B9FE5FEA00081DD10598401EDB
:104890000590ABD14846E16900F039FF5FEA0008B6
:1048A00012D120220021206A00F02AFF0B22206A68
:1048B000039900F01BFF94F82F00216A00F0180004
:1048C0000873012089F8030040461BE74C5A000892
:1048D0002DE9F04107680E460546B1F5001F36D2B6
:1048E000F00634D16E61AC6824B93878032805D35A
:1048F000BC6A1CB178894FEA402812E03889B0EBD5
:10490000561F24D9B86A12E0284600F0EBFD044691
:10491000401C1AD0022C1AD3B869A04217D9A6EBB2
:10492000080646452146EFD23846FFF723FCC5E985
:10493000064060B100EB5620E861C6F30800384439
:10494000343028620020BDE8F0810120FBE702201E
:10495000F9E70000084910B50B5C002253B90122A9
:104960000A540A1801EB8000127A40680168104668
:1049700088470246104610BD1C44001030B4054C58
:10498000231804EB80001B7A406804691846A4468B
:1049900030BC60471C44001030B4054D2C1805EBAA
:1049A0008000247A406885682046AC4630BC604769
:1049B0001C440010044A111802EB8000097A406878
:1049C00042680846104700001C44001030B4054DF2
:1049D0002C1805EB8000247A4068C5682046AC4658
:1049E00030BC60471C44001038B5044600F050FA53
:1049F00000280CD16946204600F0EBFF002806D1C4
:104A00002069FFF777FD002801D10021216038BD22
:104A10002DE9FE4F0D460446694600F0DAFF070017
:104A200064D1677D002FFBD1E06A4FF0020A4FF09E
:104A3000010804F1300B00286AD0691C29D0E06815
:104A4000A84200D20546A561002D4FD02046691E20
:104A5000FFF77EFB0146E0610098FFF78BFB002823
:104A600075D000996D1E4A89521E02EA552215180A
:104A7000208BC005E9D0226AAA42E6D0207D00063C
:104A80003BD5487801235946FFF7A0FF00286ED197
:104A90002FE002C80191A16883460225F1B10026EA
:104AA000AD1C029189462046761C00F01BFD014694
:104AB00001284CD9481C5AD009F101008142F1D09B
:104AC0000198854206D8CBF800600BF10400029AE9
:104AD00004C08346009880698842E0D8E06A056097
:104AE0000198854203D80021CBF8001097E01127E8
:104AF00095E0207D00F07F002075009801232A4674
:104B000040785946FFF748FF002830D1256286E0FB
:104B1000E068A84203D2217D890700D405464FF002
:104B20000009A069C4F8189005B3009949894E029C
:104B300070B1691EB1FBF6F2401EB0FBF6F18A427D
:104B400006D3711E8843A0612D1AE1690DE04FE084
:104B5000A16849B900212046FFF758FB014601280A
:104B600046D0481C55D0A160E161D9B927E050E09A
:104B7000A069AD1B3044A061207D8007204605D58B
:104B8000FFF744FB010004D100250DE000F0AAFC72
:104B90000146481C3DD001292AD9009880698842E5
:104BA00026D9E161B542E3D8A0692844A061E805AF
:104BB00005D00098FFF7DEFAD0B100EB5529E16887
:104BC000A069884204D9E060217D41F0400121754F
:104BD000C00524D0226A4A4521D0207D000610D588
:104BE0000098012359464078FFF7F0FE88B904E0A9
:104BF00084F815A00220BDE8FE8F207D00F07F0024
:104C00002075009801234A4640785946FFF7C4FEB4
:104C100018B184F815800120EDE7C4F820903846DB
:104C2000E9E700002DE9F74181B090460298009035
:104C3000684600F0B8FC040003D50B2004B0BDE8C2
:104C4000F0810D4E002756F824501DB12846FFF77D
:104C50006FFA2F700198002800D0077046F82400E2
:104C600002D0B8F1010F01D00020E7E7002201A92E
:104C700002A800F081FAE1E76C4200102DE9F74349
:104C8000ADF5147D05000BD002F03F0632466946B3
:104C900095A800F071FA04004FF0000805D0EFE08D
:104CA00009200DF5177DBDE8F083009810A901904B
:104CB000C16001A8959900F089FB04000ED19DF810
:104CC0003300000601D5062408E0700801D0012158
:104CD00000E0002101A8FFF7FDF9044616F01C0FC3
:104CE0005DD04FF00109C4B1042C10D100206749F8
:104CF00002E0401C022804D201EB00121268002AD4
:104D0000F7D1022807D001A8FFF7F0FC044646F0CF
:104D100008065CB1B4E01224B2E09DF80A0010F07D
:104D2000110F47D1700701D50824A9E0300747D5F6
:104D300000F037FC0746099839460E3000F0C3FDF5
:104D400009983946163000F0BEFD09992020C87236
:104D50000999009800F086FC0746002209990098FE
:104D600000F09DFD099800211C3000F0ACFD009979
:104D700081F8039017B3D1F830900022394601A88A
:104D800000F053FD04007BD14946009800F0BFFCC1
:104D900004000098A7F1010707610DD070E0ECBB9B
:104DA0009DF80A00C10601D5042469E0B10703D5C6
:104DB000C00701D0072463E0300701D546F0400664
:104DC0000098006B68620998A862700801D0012100
:104DD00000E0002101A800F005FC2861B8B30999A2
:104DE000009800F03FFCA86009981C3000F04DFCD2
:104DF000C5F82C80E86000992960009905F1300021
:104E00004FF40072C988A9802E7585F81580C5F801
:104E1000208000218146C5F8188000E030E000F0D5
:104E20006FFCB0062ED5EE6866B3AE610098A96837
:104E3000408947020FE0284600F054FB0146012854
:104E400000D80224481C03D0F61B24B105E01BE067
:104E50000124F61B01E0BE42EDD8E96184B9F005FA
:104E600010D00098FFF786F970B100EB56222A6245
:104E70000098012349464078FFF78EFD10B10124C8
:104E8000C5F8008020460CE70224F9E7FC43001037
:104E9000F8B50446694600F09CFD00280ED1217D3E
:104EA0004A060BD508060ED50098226A01234078E1
:104EB00004F13001FFF78AFD08B10120F8BD207D23
:104EC00000F07F00207500F06CFB0646616A0098D8
:104ED00000F01DFC0028F1D1A56A2946E87A40F0CF
:104EE0002000E872A268206800F0D9FC05F11C00DF
:104EF000E16800F0E8FC314605F1160000F0E3FC43
:104F0000002105F1120000F0E6FC00980121C170BB
:104F100000F0F2FC217D01F0BF012175F8BD2DE903
:104F2000FE4F04460020884618609946154602A99F
:104F3000204600F04EFD002806D1607D002803D1F8
:104F4000207D800702D40720BDE8FE8FA0690127DD
:104F500042194FF0020A04F1300B824200D2C543DD
:104F60009BE0A169C80575D102984089401E10EAEE
:104F7000512618D129B1E06A38B12046FFF7E8F888
:104F800007E0A06838B9002100E0E1692046FFF79A
:104F90003DF900287DD001282DD0411C54D0E0617E
:104FA000A16801B9A060207D00060BD50298226A95
:104FB000012340785946FFF709FDA0BB207D00F092
:104FC0007F002075E1690298FFF7D4F898B130446A
:104FD0000190680A009027D03218029841898A42CD
:104FE00001D9891B0091DDE9003240784146FFF785
:104FF000EDFCC0B903E084F815A00220A4E7216A03
:105000000198081A009988420AD208EB40214FF40F
:105010000072584600F06AFB207D00F07F0020758A
:105020000098460228E00FE0216A019881420FD0E3
:10503000E168A06988420BD2029801235946407862
:10504000019AFFF7A9FC18B1677501207CE701E020
:1050500001982062208BC0F30800C0F50076AE42B4
:1050600000D92E46204432464146303000F03EFB07
:10507000207D40F080002075A069B0443044A061DC
:10508000E168884200D80846E060D9F8000081193C
:1050900000E005E0AD1BC9F80010002D7FF461AF02
:1050A000207D40F04000207500204DE770B580283D
:1050B0001BD345F2205309B10D4D00E00D4D0021E9
:1050C00010245A1A02EBD27201EB620235F8226008
:1050D000864206D001D2114600E01346641EF0D18C
:1050E00004E01CB105EB8200408870BD002070BD5B
:1050F000FAAE0108765A000830B5B0F5805F01D2EB
:105100001B4900E01B4931F8022B002A15D09042C0
:1051100013D331F8024B230AE5B252FA84F48442E5
:1051200021D9092B09D2DFE803F005090E11131567
:1051300017191B00801A31F8100030BD811A01F0D8
:105140000101401A00E0103880B230BD2038FBE782
:105150003038F9E71A38F7E70830F5E75038F3E761
:10516000A0F5E350F0E7002BCDD101EB4501CAE7F4
:105170007E030308700503082DE9FF4100279046D0
:105180000E460F6000F00FFA050003D50B2004B0A7
:10519000BDE8F0818A4850F825409CB13460207801
:1051A00008F0FE0620B16078FFF704FCC1070BD0C1
:1051B0002770E8B2B8466070FFF7CCFBC10708D093
:1051C0000320E4E70C20E2E70EB1400704D40020FE
:1051D000DDE71EB1400701D50A20D8E70026314699
:1051E0002046FEF737FF022822D100254FEA0D079F
:1051F00004EB051090F8F61100F5F97019B10830BC
:1052000000F043FA00E0002047F825006D1C042D53
:10521000EED3002557F8256036B131462046FEF71B
:1052200019FF022801D203E003206D1C042DF1D3E5
:10523000042809D002286DD204F13F0000F030FAB2
:10524000B0F5007F66D101E00120A0E704F14A003B
:1052500000F026FA18B904F1580000F016FAE061DF
:1052600094F84450A570012D01D0022D52D1454330
:1052700094F841006081E8B3411E08424AD104F12C
:10528000450000F00DFA2081000743D104F14700EA
:1052900000F006FA070004D104F1540000F0F5F91B
:1052A000074604F1420000F0FBF9010032D02389E7
:1052B000481900EB131297422CD3B81A6789B0FB38
:1052C000F7F0B8B103274FF6F57C604500D8022708
:1052D00040F6F57C604500D80127801C3244E2622C
:1052E0003144A061C4E90861032F15D013B12944EA
:1052F000A16200E00EE0022F1FD000F0010100EBE0
:10530000400001EB500000BFE16900F2FF10B1EB7B
:10531000502F14D20D203AE704F15E0000F0C0F9DE
:105320000028F7D120890028F4D104F1600000F0B2
:10533000ACF9A062A0698000E6E74000E4E74FF026
:10534000FF306061206180202071032F2CD104F197
:10535000640000F0A5F9012826D1711C204600F058
:10536000D6F908BB84F8048004F2322000F098F9E2
:10537000A0F52A41553917D104F1340000F085F920
:105380001049884210D104F5067000F07EF90E49EC
:10539000884209D104F5077000F077F9606104F5DF
:1053A000087000F072F9206105492770091F08880C
:1053B000401C0880E0802046FEF7BAFE07E70000A8
:1053C0006C420010525261417272416173B50446E1
:1053D0000568019801E0401C019001782F29FAD05E
:1053E0005C29F8D00021A16001980078202806D21D
:1053F000802084F82F002046FFF76AFA7CBD01A9BF
:105400002046FEF755FF0028F8D12046FFF78CF81C
:1054100094F82F1028B10428F0D14907EED40520C4
:105420007CBD4907FCD4A079C006F8D5A08AC0F39A
:10543000080041192846343100F014F9A060DEE775
:1054400013B54FF6FF73012269460248FDF732F9A2
:1054500000981CBDB84300107CB516461C46054696
:105460000B2200F043F9052C11D91D4A0CE0002154
:10547000B61C2346044663F35F044008E30300D5EB
:105480005440491C1029F4D330880028EFD107215B
:105490004FEA0D0304F00F003030392800D9C01D49
:1054A0005854491E2409F5D17E20002258544C1E20
:1054B00006E081387D2802D8A24206D0521C521C38
:1054C0008A4202D2A85C2028F3D1082902D2585C73
:1054D000491C00E02020A854521C082AF5D37CBDAA
:1054E000211001002DE9F04104680D4602290BD37B
:1054F000A069A84208D920784FF0FF36012807D0CC
:1055000002282BD0032839D001263046BDE8F0818F
:10551000606A05EB550700EB5721204600F0F7F8CD
:105520000028F2D1C7F3080020447F1C90F8348093
:10553000606A00EB5721204600F0E9F80028E4D12A
:10554000C7F30800204490F8341048EA0120E90726
:1055500001D00609D9E7C0F30B06D6E7606A00EB75
:105560001521204600F0D3F80028CED1E8B204EB94
:105570004000343000F094F80646C6E7606A00EB5D
:10558000D511204600F0C3F80028BED140F2FF102C
:1055900000EA85002044343000F077F820F07046AF
:1055A000B3E70020704710B504464FF0FF30226883
:1055B000002A13D0114600E0491C0B78202B0ED393
:1055C0003A2BF9D112F8013B303B0A2B06D28A4222
:1055D00004D1002B02D1491C1846216010BD0020C7
:1055E00010BD0000F0B502461D4BD2F8005000205F
:1055F00003EB00142668AE4207D166689768BE4286
:1056000003D1A4685669B44202D0401C0228EFD3EB
:10561000022814D1002002E0401C022804D203EB2F
:1056200000142468002CF7D102280ED003EB0014DC
:105630002560956865605269A2600022A2810029F8
:1056400003EB0011898902D019B10020F0BD491C7B
:1056500001E04FF4807103EB0012401C9181F0BD1A
:10566000FC43001070B506460D4601F11A0000F02B
:1056700017F804463078032805D105F1140000F02E
:105680000FF844EA0044204670BDC178827842EAAF
:1056900001214278007842EA012140EA0120704766
:1056A0004178007840EA012070470000FBF746FF90
:1056B000FDF71AFFFDF784F8FDF756F8FDF7ECF853
:1056C000FDF7FEF8FDF76EF803A0FEF721F8FBF7F3
:1056D0004BFBFBF7BBF9FEE74861726477617265CB
:1056E00020496E6974204F4B210D0A00002A05D015
:1056F00011F8013B00F8013B521EF9D17047000040
:105700005FFA81F100F8011B521EFBD1704770B5A2
:105710000446006B0D460026A8420FD0204600F03C
:105720002FF906000AD1607801232A4604F13401DA
:10573000FFF732F908B1751E01262563304670BDAA
:105740002DE9F047022617460D460446022969D383
:10575000A069A84266D920784FF00109012804D039
:10576000022836D003285DD143E0616A05EB550875
:1057700001EB58212046FFF7CAFF060052D1C8F3BB
:1057800008002044343008F10108E90704D001780A
:10579000FAB262F31F1100E03946017084F80390F9
:1057A000616A204601EB5821FFF7B1FF060039D1AD
:1057B000C8F3080020443430E90702D0C7F30711CA
:1057C00005E00178C7F3032201F0F00111430170F5
:1057D00026E0606A00EB15212046FFF798FF0600DF
:1057E00020D1E8B204EB4000B9B2343000F073F8D5
:1057F00016E0606A00EBD5112046FFF788FF06002F
:1058000010D140F2FF1000EA8500204434300546F4
:10581000FFF73BFF67F31B000146284600F053F8F3
:1058200084F803903046BDE8F0872DE9F041056823
:1058300013460E46074602292DD3A869B0422AD93D
:105840003BB14FF0FF3219462846FFF779FF002899
:105850001FD131463846FFF745FE040018D0012C11
:1058600019D0601C19D0002231462846FFF768FF86
:1058700000280ED1D5E90510821E914205D2491C9F
:105880006961297941F0010129712646B042E0D8C9
:105890000020BDE8F0810220FBE70120F9E770B5A8
:1058A0000C460646154691B204F11A0000F013F8B2
:1058B0003078032806D1290C04F11400BDE87040AB
:1058C00000F009B870BD0170090A4170090A8170C1
:1058D000090AC17070470170090A4170704701469A
:1058E00000200B22430803EBC01011F8013B521EAD
:1058F0001844C0B2F6D1704770B5044600F040F8C5
:10590000050036D1207803282CD12079012829D10F
:10591000420204F1340000210646FFF7F1FE4AF688
:10592000552104F23220FFF7D6FF13493046FFF726
:10593000CAFF124904F50670FFF7C5FF04F50770AA
:105940006169FFF7C0FF04F508702169FFF7BBFF2D
:10595000226A0123521C226360783146FFF736F831
:1059600000202071002260781146FFF707F800B18F
:105970000125284670BD000052526141727241619A
:105980002DE9F0410446C0780027F8B1256B04F1F9
:105990003401607801232A468846FFF717F808B1DA
:1059A000012713E00020E070606AE169281A88424C
:1059B0000CD2A67808E0E0690123054460782A4605
:1059C0004146FFF703F8761E022EF4D23846BDE8B2
:1059D000F08170B50E4604004FF009050CD0206828
:1059E00050B1017841B1A188C288914204D1407878
:1059F000FEF7E0FFC00703D000203060284670BDEE
:105A000000252068F9E70000030041007803CF0774
:105A1000B315B217E317CC0C0006101600061016CB
:105A2000000000000000000001020304060708094E
:105A300000000000010203048133000865340008FF
:105A4000ED330008693400089D33000801030507A1
:105A5000090E10121416181C1E000100040010007C
:105A600040000001000200000100020004000800E4
:105A7000100020000000A400E8A1A700ECA1A800ED
:105A8000A7A1B000E3A1B100C0A1B700A4A1D700B5
:105A9000C1A1E000A4A8E100A2A8E800A8A8E9002C
:105AA000A6A8EA00BAA8EC00ACA8ED00AAA8F200EB
:105AB000B0A8F300AEA8F700C2A1F900B4A8FA009C
:105AC000B2A8FC00B9A80101A1A81301A5A81B0157
:105AD000A7A82B01A9A84401BDA84801BEA84D0153
